{
	"_format": "hh-sol-artifact-1",
	"contractName": "WavePortal",
	"sourceName": "contracts/WavePortal.sol",
	"abi": [
		{
			"inputs": [],
			"stateMutability": "payable",
			"type": "constructor"
		},
		{
			"anonymous": false,
			"inputs": [
				{
					"indexed": true,
					"internalType": "address",
					"name": "from",
					"type": "address"
				},
				{
					"indexed": false,
					"internalType": "uint256",
					"name": "timestamp",
					"type": "uint256"
				}
			],
			"name": "NewHighFive",
			"type": "event"
		},
		{
			"anonymous": false,
			"inputs": [
				{
					"indexed": true,
					"internalType": "address",
					"name": "from",
					"type": "address"
				},
				{
					"indexed": false,
					"internalType": "uint256",
					"name": "timestamp",
					"type": "uint256"
				},
				{
					"indexed": false,
					"internalType": "string",
					"name": "message",
					"type": "string"
				}
			],
			"name": "NewWave",
			"type": "event"
		},
		{
			"inputs": [],
			"name": "getAllHighFives",
			"outputs": [
				{
					"components": [
						{
							"internalType": "address",
							"name": "highFiver",
							"type": "address"
						},
						{
							"internalType": "uint256",
							"name": "timestamp",
							"type": "uint256"
						}
					],
					"internalType": "struct WavePortal.HighFive[]",
					"name": "",
					"type": "tuple[]"
				}
			],
			"stateMutability": "view",
			"type": "function"
		},
		{
			"inputs": [],
			"name": "getAllWaves",
			"outputs": [
				{
					"components": [
						{
							"internalType": "address",
							"name": "waver",
							"type": "address"
						},
						{
							"internalType": "string",
							"name": "message",
							"type": "string"
						},
						{
							"internalType": "uint256",
							"name": "timestamp",
							"type": "uint256"
						}
					],
					"internalType": "struct WavePortal.Wave[]",
					"name": "",
					"type": "tuple[]"
				}
			],
			"stateMutability": "view",
			"type": "function"
		},
		{
			"inputs": [],
			"name": "getTotalHighFives",
			"outputs": [
				{
					"internalType": "uint256",
					"name": "",
					"type": "uint256"
				}
			],
			"stateMutability": "view",
			"type": "function"
		},
		{
			"inputs": [],
			"name": "getTotalWaves",
			"outputs": [
				{
					"internalType": "uint256",
					"name": "",
					"type": "uint256"
				}
			],
			"stateMutability": "view",
			"type": "function"
		},
		{
			"inputs": [],
			"name": "getTotalWavesAndHighFives",
			"outputs": [
				{
					"internalType": "uint256",
					"name": "",
					"type": "uint256"
				}
			],
			"stateMutability": "nonpayable",
			"type": "function"
		},
		{
			"inputs": [],
			"name": "highFive",
			"outputs": [],
			"stateMutability": "nonpayable",
			"type": "function"
		},
		{
			"inputs": [
				{
					"internalType": "address",
					"name": "",
					"type": "address"
				}
			],
			"name": "lastWavedAt",
			"outputs": [
				{
					"internalType": "uint256",
					"name": "",
					"type": "uint256"
				}
			],
			"stateMutability": "view",
			"type": "function"
		},
		{
			"inputs": [
				{
					"internalType": "string",
					"name": "_message",
					"type": "string"
				}
			],
			"name": "wave",
			"outputs": [],
			"stateMutability": "nonpayable",
			"type": "function"
		}
	],
	"bytecode": "0x60806040526200004f6040518060400160405280601581526020017f436f6e747261637420636f6e73747275637465642100000000000000000000008152506200007760201b620009861760201c565b606444426200005f9190620001c4565b6200006b919062000261565b60038190555062000308565b62000117816040516024016200008e919062000184565b6040516020818303038152906040527f41304fac000000000000000000000000000000000000000000000000000000007bffffffffffffffffffffffffffffffffffffffffffffffffffffffff19166020820180517bffffffffffffffffffffffffffffffffffffffffffffffffffffffff83818316178352505050506200011a60201b60201c565b50565b60008151905060006a636f6e736f6c652e6c6f679050602083016000808483855afa5050505050565b60006200015082620001a8565b6200015c8185620001b3565b93506200016e8185602086016200022b565b6200017981620002f7565b840191505092915050565b60006020820190508181036000830152620001a0818462000143565b905092915050565b600081519050919050565b600082825260208201905092915050565b6000620001d18262000221565b9150620001de8362000221565b9250827fffffffffffffffffffffffffffffffffffffffffffffffffffffffffffffffff0382111562000216576200021562000299565b5b828201905092915050565b6000819050919050565b60005b838110156200024b5780820151818401526020810190506200022e565b838111156200025b576000848401525b50505050565b60006200026e8262000221565b91506200027b8362000221565b9250826200028e576200028d620002c8565b5b828206905092915050565b7f4e487b7100000000000000000000000000000000000000000000000000000000600052601160045260246000fd5b7f4e487b7100000000000000000000000000000000000000000000000000000000600052601260045260246000fd5b6000601f19601f8301169050919050565b6115ba80620003186000396000f3fe608060405234801561001057600080fd5b50600436106100885760003560e01c80639a2cdc081161005b5780639a2cdc08146100ef5780639bdf74241461010d578063a42a46631461012b578063bd43a9081461015b57610088565b80633e06f67f1461008d578063449d46c0146100ab578063707824d3146100c75780639754e2bf146100d1575b600080fd5b610095610179565b6040516100a291906110fd565b60405180910390f35b6100c560048036038101906100c09190610cc9565b6101c4565b005b6100cf61057e565b005b6100d96106cf565b6040516100e69190610fd7565b60405180910390f35b6100f761078e565b60405161010491906110fd565b60405180910390f35b6101156107d9565b60405161012291906110fd565b60405180910390f35b61014560048036038101906101409190610ca0565b61081d565b60405161015291906110fd565b60405180910390f35b610163610835565b6040516101709190610ff9565b60405180910390f35b60006101bc6040518060400160405280601c81526020017f5765206861766520256420746f74616c20686967682066697665732100000000815250600154610a1f565b600154905090565b42610528600560003373ffffffffffffffffffffffffffffffffffffffff1673ffffffffffffffffffffffffffffffffffffffff168152602001908152602001600020546102129190611248565b10610252576040517f08c379a00000000000000000000000000000000000000000000000000000000081526004016102499061109d565b60405180910390fd5b42600560003373ffffffffffffffffffffffffffffffffffffffff1673ffffffffffffffffffffffffffffffffffffffff1681526020019081526020016000208190555060016000808282546102a89190611248565b925050819055506102ee6040518060400160405280600d81526020017f257320686173207761766564210000000000000000000000000000000000000081525033610abb565b600460405180606001604052803373ffffffffffffffffffffffffffffffffffffffff16815260200183815260200142815250908060018154018082558091505060019003906000526020600020906003020160009091909190915060008201518160000160006101000a81548173ffffffffffffffffffffffffffffffffffffffff021916908373ffffffffffffffffffffffffffffffffffffffff16021790555060208201518160010190805190602001906103ad929190610b80565b50604082015181600201555050606460035442446103cb9190611248565b6103d59190611248565b6103df919061137f565b60038190555060016003541161052b5761042e6040518060400160405280600781526020017f257320776f6e210000000000000000000000000000000000000000000000000081525033610abb565b6000655af3107a400090504781111561047c576040517f08c379a0000000000000000000000000000000000000000000000000000000008152600401610473906110dd565b60405180910390fd5b60003373ffffffffffffffffffffffffffffffffffffffff16826040516104a290610fc2565b60006040518083038185875af1925050503d80600081146104df576040519150601f19603f3d011682016040523d82523d6000602084013e6104e4565b606091505b5050905080610528576040517f08c379a000000000000000000000000000000000000000000000000000000000815260040161051f906110bd565b60405180910390fd5b50505b3373ffffffffffffffffffffffffffffffffffffffff167f5f7e16dc676677766a70e9c5628aa6c54ddb8b6e5188e2ae1e1f17f1ffbea7164283604051610573929190611118565b60405180910390a250565b60018060008282546105909190611248565b925050819055506105d66040518060400160405280601281526020017f257320686173206869676820666976656421000000000000000000000000000081525033610abb565b600660405180604001604052803373ffffffffffffffffffffffffffffffffffffffff16815260200142815250908060018154018082558091505060019003906000526020600020906002020160009091909190915060008201518160000160006101000a81548173ffffffffffffffffffffffffffffffffffffffff021916908373ffffffffffffffffffffffffffffffffffffffff1602179055506020820151816001015550503373ffffffffffffffffffffffffffffffffffffffff167f56c8a773797dec81898fe62420ab829241cd522301887e73dd0815d77136bd89426040516106c591906110fd565b60405180910390a2565b60606006805480602002602001604051908101604052809291908181526020016000905b8282101561078557838290600052602060002090600202016040518060400160405290816000820160009054906101000a900473ffffffffffffffffffffffffffffffffffffffff1673ffffffffffffffffffffffffffffffffffffffff1673ffffffffffffffffffffffffffffffffffffffff168152602001600182015481525050815260200190600101906106f3565b50505050905090565b60006107d16040518060400160405280601781526020017f5765206861766520256420746f74616c20776176657321000000000000000000815250600054610a1f565b600054905090565b60006001546000546107eb9190611248565b60028190555061081560405180606001604052806026815260200161155f60269139600254610a1f565b600254905090565b60056020528060005260406000206000915090505481565b60606004805480602002602001604051908101604052809291908181526020016000905b8282101561097d57838290600052602060002090600302016040518060600160405290816000820160009054906101000a900473ffffffffffffffffffffffffffffffffffffffff1673ffffffffffffffffffffffffffffffffffffffff1673ffffffffffffffffffffffffffffffffffffffff1681526020016001820180546108e29061131c565b80601f016020809104026020016040519081016040528092919081815260200182805461090e9061131c565b801561095b5780601f106109305761010080835404028352916020019161095b565b820191906000526020600020905b81548152906001019060200180831161093e57829003601f168201915b5050505050815260200160028201548152505081526020019060010190610859565b50505050905090565b610a1c8160405160240161099a919061101b565b6040516020818303038152906040527f41304fac000000000000000000000000000000000000000000000000000000007bffffffffffffffffffffffffffffffffffffffffffffffffffffffff19166020820180517bffffffffffffffffffffffffffffffffffffffffffffffffffffffff8381831617835250505050610b57565b50565b610ab78282604051602401610a3592919061106d565b6040516020818303038152906040527f9710a9d0000000000000000000000000000000000000000000000000000000007bffffffffffffffffffffffffffffffffffffffffffffffffffffffff19166020820180517bffffffffffffffffffffffffffffffffffffffffffffffffffffffff8381831617835250505050610b57565b5050565b610b538282604051602401610ad192919061103d565b6040516020818303038152906040527f319af333000000000000000000000000000000000000000000000000000000007bffffffffffffffffffffffffffffffffffffffffffffffffffffffff19166020820180517bffffffffffffffffffffffffffffffffffffffffffffffffffffffff8381831617835250505050610b57565b5050565b60008151905060006a636f6e736f6c652e6c6f679050602083016000808483855afa5050505050565b828054610b8c9061131c565b90600052602060002090601f016020900481019282610bae5760008555610bf5565b82601f10610bc757805160ff1916838001178555610bf5565b82800160010185558215610bf5579182015b82811115610bf4578251825591602001919060010190610bd9565b5b509050610c029190610c06565b5090565b5b80821115610c1f576000816000905550600101610c07565b5090565b6000610c36610c318461116d565b611148565b905082815260208101848484011115610c4e57600080fd5b610c598482856112da565b509392505050565b600081359050610c7081611547565b92915050565b600082601f830112610c8757600080fd5b8135610c97848260208601610c23565b91505092915050565b600060208284031215610cb257600080fd5b6000610cc084828501610c61565b91505092915050565b600060208284031215610cdb57600080fd5b600082013567ffffffffffffffff811115610cf557600080fd5b610d0184828501610c76565b91505092915050565b6000610d168383610f25565b60408301905092915050565b6000610d2e8383610f54565b905092915050565b610d3f8161129e565b82525050565b610d4e8161129e565b82525050565b6000610d5f826111be565b610d6981856111f9565b9350610d748361119e565b8060005b83811015610da5578151610d8c8882610d0a565b9750610d97836111df565b925050600181019050610d78565b5085935050505092915050565b6000610dbd826111c9565b610dc7818561120a565b935083602082028501610dd9856111ae565b8060005b85811015610e155784840389528151610df68582610d22565b9450610e01836111ec565b925060208a01995050600181019050610ddd565b50829750879550505050505092915050565b6000610e32826111d4565b610e3c8185611226565b9350610e4c8185602086016112e9565b610e558161146c565b840191505092915050565b6000610e6b826111d4565b610e758185611237565b9350610e858185602086016112e9565b610e8e8161146c565b840191505092915050565b6000610ea6600b83611237565b9150610eb18261147d565b602082019050919050565b6000610ec9602783611237565b9150610ed4826114a6565b604082019050919050565b6000610eec60008361121b565b9150610ef7826114f5565b600082019050919050565b6000610f0f603083611237565b9150610f1a826114f8565b604082019050919050565b604082016000820151610f3b6000850182610d36565b506020820151610f4e6020850182610fa4565b50505050565b6000606083016000830151610f6c6000860182610d36565b5060208301518482036020860152610f848282610e27565b9150506040830151610f996040860182610fa4565b508091505092915050565b610fad816112d0565b82525050565b610fbc816112d0565b82525050565b6000610fcd82610edf565b9150819050919050565b60006020820190508181036000830152610ff18184610d54565b905092915050565b600060208201905081810360008301526110138184610db2565b905092915050565b600060208201905081810360008301526110358184610e60565b905092915050565b600060408201905081810360008301526110578185610e60565b90506110666020830184610d45565b9392505050565b600060408201905081810360008301526110878185610e60565b90506110966020830184610fb3565b9392505050565b600060208201905081810360008301526110b681610e99565b9050919050565b600060208201905081810360008301526110d681610ebc565b9050919050565b600060208201905081810360008301526110f681610f02565b9050919050565b60006020820190506111126000830184610fb3565b92915050565b600060408201905061112d6000830185610fb3565b818103602083015261113f8184610e60565b90509392505050565b6000611152611163565b905061115e828261134e565b919050565b6000604051905090565b600067ffffffffffffffff8211156111885761118761143d565b5b6111918261146c565b9050602081019050919050565b6000819050602082019050919050565b6000819050602082019050919050565b600081519050919050565b600081519050919050565b600081519050919050565b6000602082019050919050565b6000602082019050919050565b600082825260208201905092915050565b600082825260208201905092915050565b600081905092915050565b600082825260208201905092915050565b600082825260208201905092915050565b6000611253826112d0565b915061125e836112d0565b9250827fffffffffffffffffffffffffffffffffffffffffffffffffffffffffffffffff03821115611293576112926113b0565b5b828201905092915050565b60006112a9826112b0565b9050919050565b600073ffffffffffffffffffffffffffffffffffffffff82169050919050565b6000819050919050565b82818337600083830152505050565b60005b838110156113075780820151818401526020810190506112ec565b83811115611316576000848401525b50505050565b6000600282049050600182168061133457607f821691505b602082108114156113485761134761140e565b5b50919050565b6113578261146c565b810181811067ffffffffffffffff821117156113765761137561143d565b5b80604052505050565b600061138a826112d0565b9150611395836112d0565b9250826113a5576113a46113df565b5b828206905092915050565b7f4e487b7100000000000000000000000000000000000000000000000000000000600052601160045260246000fd5b7f4e487b7100000000000000000000000000000000000000000000000000000000600052601260045260246000fd5b7f4e487b7100000000000000000000000000000000000000000000000000000000600052602260045260246000fd5b7f4e487b7100000000000000000000000000000000000000000000000000000000600052604160045260246000fd5b6000601f19601f8301169050919050565b7f57616974203232206d696e000000000000000000000000000000000000000000600082015250565b7f4661696c656420746f207769746864726177206d6f6e65792066726f6d20636f60008201527f6e74726163742e00000000000000000000000000000000000000000000000000602082015250565b50565b7f547279696e6720746f207769746864726177206d6f7265206d6f6e657920746860008201527f616e20636f6e7472616374206861732e00000000000000000000000000000000602082015250565b6115508161129e565b811461155b57600080fd5b5056fe5765206861766520256420746f74616c20776176657320616e64206869676820666976657321a2646970667358221220c98cc05f34e226dbda855970e7d3648221a3c94b8f8971be856620514dc4ea8064736f6c63430008040033",
	"linkReferences": {},
	"deployedLinkReferences": {}
}